{"contracts/TestGas.sol":{"TestGas":{"abi":[{"inputs":[],"name":"test1","outputs":[],"stateMutability":"nonpayable","type":"function"},{"inputs":[],"name":"test2","outputs":[],"stateMutability":"nonpayable","type":"function"},{"inputs":[],"name":"test3","outputs":[],"stateMutability":"nonpayable","type":"function"},{"inputs":[],"name":"test4","outputs":[],"stateMutability":"nonpayable","type":"function"},{"inputs":[],"name":"test5","outputs":[],"stateMutability":"nonpayable","type":"function"}],"evm":{"bytecode":{"linkReferences":{},"object":"608060405234801561001057600080fd5b50610244806100206000396000f3fe608060405234801561001057600080fd5b50600436106100575760003560e01c80630a8e8e011461005c5780631ad7be821461006657806366e41cb7146100705780636b59084d1461007a5780638f0d282d14610084575b600080fd5b61006461008e565b005b61006e6100d7565b005b6100786100f7565b005b610082610128565b005b61008c610141565b005b6000808154809291906100a090610192565b9190505550600160008154809291906100b890610192565b9190505550600260008154809291906100d090610192565b9190505550565b6100df610141565b6002546000546100ef91906101da565b600181905550565b60008081548092919061010990610192565b91905055506001600081548092919061012190610192565b9190505550565b60008081548092919061013a90610192565b9190505550565b60015460005461015191906101da565b600281905550565b7f4e487b7100000000000000000000000000000000000000000000000000000000600052601160045260246000fd5b6000819050919050565b600061019d82610188565b91507fffffffffffffffffffffffffffffffffffffffffffffffffffffffffffffffff82036101cf576101ce610159565b5b600182019050919050565b60006101e582610188565b91506101f083610188565b925082820190508082111561020857610207610159565b5b9291505056fea264697066735822122093a0d603291af0a762b75a9a704631a4603d56e2e0552130641e1f14d6c174a864736f6c63430008110033","opcodes":"PUSH1 0x80 PUSH1 0x40 MSTORE CALLVALUE DUP1 ISZERO PUSH2 0x10 JUMPI PUSH1 0x0 DUP1 REVERT JUMPDEST POP PUSH2 0x244 DUP1 PUSH2 0x20 PUSH1 0x0 CODECOPY PUSH1 0x0 RETURN INVALID PUSH1 0x80 PUSH1 0x40 MSTORE CALLVALUE DUP1 ISZERO PUSH2 0x10 JUMPI PUSH1 0x0 DUP1 REVERT JUMPDEST POP PUSH1 0x4 CALLDATASIZE LT PUSH2 0x57 JUMPI PUSH1 0x0 CALLDATALOAD PUSH1 0xE0 SHR DUP1 PUSH4 0xA8E8E01 EQ PUSH2 0x5C JUMPI DUP1 PUSH4 0x1AD7BE82 EQ PUSH2 0x66 JUMPI DUP1 PUSH4 0x66E41CB7 EQ PUSH2 0x70 JUMPI DUP1 PUSH4 0x6B59084D EQ PUSH2 0x7A JUMPI DUP1 PUSH4 0x8F0D282D EQ PUSH2 0x84 JUMPI JUMPDEST PUSH1 0x0 DUP1 REVERT JUMPDEST PUSH2 0x64 PUSH2 0x8E JUMP JUMPDEST STOP JUMPDEST PUSH2 0x6E PUSH2 0xD7 JUMP JUMPDEST STOP JUMPDEST PUSH2 0x78 PUSH2 0xF7 JUMP JUMPDEST STOP JUMPDEST PUSH2 0x82 PUSH2 0x128 JUMP JUMPDEST STOP JUMPDEST PUSH2 0x8C PUSH2 0x141 JUMP JUMPDEST STOP JUMPDEST PUSH1 0x0 DUP1 DUP2 SLOAD DUP1 SWAP3 SWAP2 SWAP1 PUSH2 0xA0 SWAP1 PUSH2 0x192 JUMP JUMPDEST SWAP2 SWAP1 POP SSTORE POP PUSH1 0x1 PUSH1 0x0 DUP2 SLOAD DUP1 SWAP3 SWAP2 SWAP1 PUSH2 0xB8 SWAP1 PUSH2 0x192 JUMP JUMPDEST SWAP2 SWAP1 POP SSTORE POP PUSH1 0x2 PUSH1 0x0 DUP2 SLOAD DUP1 SWAP3 SWAP2 SWAP1 PUSH2 0xD0 SWAP1 PUSH2 0x192 JUMP JUMPDEST SWAP2 SWAP1 POP SSTORE POP JUMP JUMPDEST PUSH2 0xDF PUSH2 0x141 JUMP JUMPDEST PUSH1 0x2 SLOAD PUSH1 0x0 SLOAD PUSH2 0xEF SWAP2 SWAP1 PUSH2 0x1DA JUMP JUMPDEST PUSH1 0x1 DUP2 SWAP1 SSTORE POP JUMP JUMPDEST PUSH1 0x0 DUP1 DUP2 SLOAD DUP1 SWAP3 SWAP2 SWAP1 PUSH2 0x109 SWAP1 PUSH2 0x192 JUMP JUMPDEST SWAP2 SWAP1 POP SSTORE POP PUSH1 0x1 PUSH1 0x0 DUP2 SLOAD DUP1 SWAP3 SWAP2 SWAP1 PUSH2 0x121 SWAP1 PUSH2 0x192 JUMP JUMPDEST SWAP2 SWAP1 POP SSTORE POP JUMP JUMPDEST PUSH1 0x0 DUP1 DUP2 SLOAD DUP1 SWAP3 SWAP2 SWAP1 PUSH2 0x13A SWAP1 PUSH2 0x192 JUMP JUMPDEST SWAP2 SWAP1 POP SSTORE POP JUMP JUMPDEST PUSH1 0x1 SLOAD PUSH1 0x0 SLOAD PUSH2 0x151 SWAP2 SWAP1 PUSH2 0x1DA JUMP JUMPDEST PUSH1 0x2 DUP2 SWAP1 SSTORE POP JUMP JUMPDEST PUSH32 0x4E487B7100000000000000000000000000000000000000000000000000000000 PUSH1 0x0 MSTORE PUSH1 0x11 PUSH1 0x4 MSTORE PUSH1 0x24 PUSH1 0x0 REVERT JUMPDEST PUSH1 0x0 DUP2 SWAP1 POP SWAP2 SWAP1 POP JUMP JUMPDEST PUSH1 0x0 PUSH2 0x19D DUP3 PUSH2 0x188 JUMP JUMPDEST SWAP2 POP PUSH32 0xFFFFFFFFFFFFFFFFFFFFFFFFFFFFFFFFFFFFFFFFFFFFFFFFFFFFFFFFFFFFFFFF DUP3 SUB PUSH2 0x1CF JUMPI PUSH2 0x1CE PUSH2 0x159 JUMP JUMPDEST JUMPDEST PUSH1 0x1 DUP3 ADD SWAP1 POP SWAP2 SWAP1 POP JUMP JUMPDEST PUSH1 0x0 PUSH2 0x1E5 DUP3 PUSH2 0x188 JUMP JUMPDEST SWAP2 POP PUSH2 0x1F0 DUP4 PUSH2 0x188 JUMP JUMPDEST SWAP3 POP DUP3 DUP3 ADD SWAP1 POP DUP1 DUP3 GT ISZERO PUSH2 0x208 JUMPI PUSH2 0x207 PUSH2 0x159 JUMP JUMPDEST JUMPDEST SWAP3 SWAP2 POP POP JUMP INVALID LOG2 PUSH5 0x6970667358 0x22 SLT KECCAK256 SWAP4 LOG0 0xD6 SUB 0x29 BYTE CREATE 0xA7 PUSH3 0xB75A9A PUSH17 0x4631A4603D56E2E0552130641E1F14D6C1 PUSH21 0xA864736F6C63430008110033000000000000000000 "},"methodIdentifiers":{"test1()":"6b59084d","test2()":"66e41cb7","test3()":"0a8e8e01","test4()":"8f0d282d","test5()":"1ad7be82"}}}}}