{
  "_format": "hh-sol-artifact-1",
  "contractName": "Hero",
  "sourceName": "contracts/Hero.sol",
  "abi": [
    {
      "inputs": [
        {
          "internalType": "enum Hero.Class",
          "name": "class",
          "type": "uint8"
        }
      ],
      "name": "createHero",
      "outputs": [],
      "stateMutability": "payable",
      "type": "function"
    },
    {
      "inputs": [],
      "name": "getHeroes",
      "outputs": [
        {
          "internalType": "uint256[]",
          "name": "",
          "type": "uint256[]"
        }
      ],
      "stateMutability": "view",
      "type": "function"
    }
  ],
  "bytecode": "0x608060405234801561001057600080fd5b5061034b806100206000396000f3fe6080604052600436106100295760003560e01c80635e7e236d1461002e5780639a8d28821461004a575b600080fd5b61004860048036038101906100439190610181565b610075565b005b34801561005657600080fd5b5061005f6100c3565b60405161006c9190610276565b60405180910390f35b6706f05b59d3b200003410156100c0576040517f08c379a00000000000000000000000000000000000000000000000000000000081526004016100b7906102f5565b60405180910390fd5b50565b60606000803373ffffffffffffffffffffffffffffffffffffffff1673ffffffffffffffffffffffffffffffffffffffff16815260200190815260200160002080548060200260200160405190810160405280929190818152602001828054801561014d57602002820191906000526020600020905b815481526020019060010190808311610139575b5050505050905090565b600080fd5b6003811061016957600080fd5b50565b60008135905061017b8161015c565b92915050565b60006020828403121561019757610196610157565b5b60006101a58482850161016c565b91505092915050565b600081519050919050565b600082825260208201905092915050565b6000819050602082019050919050565b6000819050919050565b6101ed816101da565b82525050565b60006101ff83836101e4565b60208301905092915050565b6000602082019050919050565b6000610223826101ae565b61022d81856101b9565b9350610238836101ca565b8060005b8381101561026957815161025088826101f3565b975061025b8361020b565b92505060018101905061023c565b5085935050505092915050565b600060208201905081810360008301526102908184610218565b905092915050565b600082825260208201905092915050565b7f6f6d672c2073656e64206d6f7265206d6f6e6579212131000000000000000000600082015250565b60006102df601783610298565b91506102ea826102a9565b602082019050919050565b6000602082019050818103600083015261030e816102d2565b905091905056fea2646970667358221220638dc65c6bfa719789baa76653064dfc785a98fbc4cf14721b9943870bc8833a64736f6c63430008110033",
  "linkReferences": {},
  "deployedLinkReferences": {}
}