{
  "_format": "hh-sol-artifact-1",
  "contractName": "Hero",
  "sourceName": "contracts/Hero.sol",
  "abi": [
    {
      "inputs": [
        {
          "internalType": "enum Hero.Class",
          "name": "class",
          "type": "uint8"
        }
      ],
      "name": "createHero",
      "outputs": [],
      "stateMutability": "payable",
      "type": "function"
    }
  ],
  "bytecode": "0x608060405234801561001057600080fd5b50610197806100206000396000f3fe60806040526004361061001e5760003560e01c80635e7e236d14610023575b600080fd5b61003d600480360381019061003891906100b7565b61003f565b005b6706f05b59d3b2000034101561008a576040517f08c379a000000000000000000000000000000000000000000000000000000000815260040161008190610141565b60405180910390fd5b50565b600080fd5b6003811061009f57600080fd5b50565b6000813590506100b181610092565b92915050565b6000602082840312156100cd576100cc61008d565b5b60006100db848285016100a2565b91505092915050565b600082825260208201905092915050565b7f506c656173652073656e64206d6f7265206d6f6e657900000000000000000000600082015250565b600061012b6016836100e4565b9150610136826100f5565b602082019050919050565b6000602082019050818103600083015261015a8161011e565b905091905056fea26469706673582212205fc0dbc4d9e8838ae6bb031d2bfff54cec48ca2942471e60b24eb53a608522f864736f6c63430008110033",
  "linkReferences": {},
  "deployedLinkReferences": {}
}