{
  "_format": "hh-sol-artifact-1",
  "contractName": "Counter",
  "sourceName": "contracts/Counter.sol",
  "abi": [
    {
      "inputs": [],
      "name": "count",
      "outputs": [],
      "stateMutability": "nonpayable",
      "type": "function"
    },
    {
      "inputs": [],
      "name": "getCounter",
      "outputs": [
        {
          "internalType": "uint32",
          "name": "",
          "type": "uint32"
        }
      ],
      "stateMutability": "view",
      "type": "function"
    }
  ],
  "bytecode": "0x608060405234801561001057600080fd5b5061034b806100206000396000f3fe608060405234801561001057600080fd5b50600436106100365760003560e01c806306661abd1461003b5780638ada066e14610045575b600080fd5b610043610063565b005b61004d6100bd565b60405161005a91906101aa565b60405180910390f35b600080815480929190610075906101fe565b91905055506100bb6040518060400160405280600e81526020017f436f756e746572206973206e6f770000000000000000000000000000000000008152506000546100c6565b565b60008054905090565b61015e82826040516024016100dc9291906102e5565b6040516020818303038152906040527fb60e72cc000000000000000000000000000000000000000000000000000000007bffffffffffffffffffffffffffffffffffffffffffffffffffffffff19166020820180517bffffffffffffffffffffffffffffffffffffffffffffffffffffffff8381831617835250505050610162565b5050565b60008151905060006a636f6e736f6c652e6c6f679050602083016000808483855afa5050505050565b600063ffffffff82169050919050565b6101a48161018b565b82525050565b60006020820190506101bf600083018461019b565b92915050565b7f4e487b7100000000000000000000000000000000000000000000000000000000600052601160045260246000fd5b6000819050919050565b6000610209826101f4565b91507fffffffffffffffffffffffffffffffffffffffffffffffffffffffffffffffff820361023b5761023a6101c5565b5b600182019050919050565b600081519050919050565b600082825260208201905092915050565b60005b83811015610280578082015181840152602081019050610265565b60008484015250505050565b6000601f19601f8301169050919050565b60006102a882610246565b6102b28185610251565b93506102c2818560208601610262565b6102cb8161028c565b840191505092915050565b6102df816101f4565b82525050565b600060408201905081810360008301526102ff818561029d565b905061030e60208301846102d6565b939250505056fea26469706673582212203a1c957cc86f6b55978b539c8a010aa77ba8d0f199f9c93d8c32e56f629ae8d164736f6c63430008110033",
  "linkReferences": {},
  "deployedLinkReferences": {}
}