{
  "_format": "hh-sol-artifact-1",
  "contractName": "Counter",
  "sourceName": "contracts/Counter.sol",
  "abi": [
    {
      "anonymous": false,
      "inputs": [
        {
          "indexed": false,
          "internalType": "uint256",
          "name": "counter",
          "type": "uint256"
        }
      ],
      "name": "CounterInc",
      "type": "event"
    },
    {
      "inputs": [],
      "name": "count",
      "outputs": [],
      "stateMutability": "nonpayable",
      "type": "function"
    },
    {
      "inputs": [],
      "name": "getCounter",
      "outputs": [
        {
          "internalType": "uint256",
          "name": "",
          "type": "uint256"
        }
      ],
      "stateMutability": "view",
      "type": "function"
    }
  ],
  "bytecode": "0x608060405234801561001057600080fd5b50610365806100206000396000f3fe608060405234801561001057600080fd5b50600436106100365760003560e01c806306661abd1461003b5780638ada066e14610045575b600080fd5b610043610063565b005b61004d6100f6565b60405161005a91906101dd565b60405180910390f35b60008081548092919061007590610227565b91905055506100bb6040518060400160405280600e81526020017f436f756e746572206973206e6f770000000000000000000000000000000000008152506000546100ff565b7feec7b728df2430a6685bba924a4a787b147d45a2b38034570f9fe9613a91ea446000546040516100ec91906101dd565b60405180910390a1565b60008054905090565b61019782826040516024016101159291906102ff565b6040516020818303038152906040527fb60e72cc000000000000000000000000000000000000000000000000000000007bffffffffffffffffffffffffffffffffffffffffffffffffffffffff19166020820180517bffffffffffffffffffffffffffffffffffffffffffffffffffffffff838183161783525050505061019b565b5050565b60008151905060006a636f6e736f6c652e6c6f679050602083016000808483855afa5050505050565b6000819050919050565b6101d7816101c4565b82525050565b60006020820190506101f260008301846101ce565b92915050565b7f4e487b7100000000000000000000000000000000000000000000000000000000600052601160045260246000fd5b6000610232826101c4565b91507fffffffffffffffffffffffffffffffffffffffffffffffffffffffffffffffff8203610264576102636101f8565b5b600182019050919050565b600081519050919050565b600082825260208201905092915050565b60005b838110156102a957808201518184015260208101905061028e565b60008484015250505050565b6000601f19601f8301169050919050565b60006102d18261026f565b6102db818561027a565b93506102eb81856020860161028b565b6102f4816102b5565b840191505092915050565b6000604082019050818103600083015261031981856102c6565b905061032860208301846101ce565b939250505056fea2646970667358221220c0544dfd22f0417416dd7b2d503789feff12c2d99253176bcd89c8dd08a250c664736f6c63430008110033",
  "linkReferences": {},
  "deployedLinkReferences": {}
}